:100000000C9474000C9495000C9495000C9495003D
:100010000C9495000C9495000C9495000C9495000C
:100020000C9495000C9495000C9495000C949500FC
:100030000C9495000C9495000C9495000C949500EC
:100040000C9495000C9495000C9495000C949500DC
:100050000C9495000C9495000C9495000C949500CC
:100060000C9495000C9495000C9495000C949500BC
:100070000C9495000C9495000C9495000C949500AC
:100080000C9495000C9495000C9495000C9495009C
:100090000C9495000C9495000C9495000C9495008C
:1000A0000C9495000C9495000C9495000C9495007C
:1000B0000C9495000C9495000C9495000C9495006C
:1000C0000C9495000C9495000C9495000C9495005C
:1000D0000C9495000C9495000C9495000C9495004C
:1000E0000C9495000C946D0111241FBECFEFD1E24A
:1000F000DEBFCDBF00E00CBF12E0A0E0B2E0E2E165
:10010000FBE000E00BBF02C007900D92AC37B107D7
:10011000D9F712E0ACE7B2E001C01D92A438B107F4
:10012000E1F70E94C0010C9487050C9400009F9297
:10013000AF92BF92CF92DF92EF92FF920F931F93F5
:10014000CF93DF9343E050E0D12C04E010E020E0B7
:1001500030E0A0E0B0E061E070E0E0E9EE2EFF24E6
:10016000F394FB01002E01C0EE0F0A94EAF7E0952C
:10017000E2B9F7013197F1F7C0B0EC2DEF70CE2E58
:10018000C094EA0123975B0102C0AA0CBB1CCA956C
:10019000E2F7E501FC2DF170AF2EC0FE02C0AC2BE2
:1001A000BD2BE0917C02F0917D02CE23DF23BB24A6
:1001B000B394CD2B09F4B12CAB1449F0EC01C20F70
:1001C000D31FBD2CBB0CBA28B8822F5F3F4FEA016A
:1001D00022975B0102C0AA0CBB1CCA95E2F7E5019D
:1001E000C1FAAA24A0F8C1FE02C0AC2BBD2BCE23BD
:1001F000DF23BB24B394CD2B09F4B12CAB1459F0FD
:10020000EC01C20FD31FBB24B394BD0CBB0CBA28A6
:10021000B8822F5F3F4FEA0121975B0102C0AA0C11
:10022000BB1CCA95E2F7E501C2FAAA24A0F8C2FEF7
:1002300002C0AC2BBD2BCE23DF23BB24B394CD2B2C
:1002400009F4B12CAB1461F0EC01C20FD31F689418
:10025000BB24B1F8BD0CBB0CBA28B8822F5F3F4F4E
:10026000EB01042E02C0CC0FDD1F0A94E2F7C3FAA3
:10027000BB24B0F8C3FE02C0AC2BBD2BCE23DF23C2
:10028000E1E0CD2B09F4E0E0BE1649F0FC01E20FFD
:10029000F31FC42FCC0FCB29C0832F5F3F4F0F5FBD
:1002A0001F4FE4E0AE2EDA0CED2DEF77DE2E4C5F23
:1002B0005F4FF0E1EF1355CFB0937D02A0937C0226
:1002C000822FDF91CF911F910F91FF90EF90DF90E0
:1002D000CF90BF90AF909F9008958A3049F0909151
:1002E000C00095FFFCCF8093C60080E090E00895A9
:1002F0009091C00095FFFCCF9DE09093C600EFCF9A
:100300009093C5008093C40086E08093C20088E982
:100310008093C10008959091C00095FFFCCF809319
:10032000C60008958091C00087FFFCCF8091C60071
:1003300008958091C000881F8827881F0895FC01B8
:100340002081222351F031968091C00085FFFCCF9F
:100350002093C60021912111F7CF089580E292E009
:1003600090938102809380021092C50082E3809373
:10037000C40086E08093C20088E98093C10008959C
:10038000CF93DF93CDB7DEB760970FB6F894DEBF9B
:100390000FBECDBF0E94AE0180EF81B98FE082B960
:1003A00060E070E0B0E080E090E040E050E08E017E
:1003B0000F5F1F4FF5E3EF2EF2E0FF2EAEE2AA2E05
:1003C000A2E0BA2ECC24C394D12C30E9832E9924F8
:1003D0009394643071050CF09FC09B012C5F3F4FDC
:1003E000F60102C0EE0FFF1F2A95E2F79F0120954C
:1003F00022B9F4013197F1F7A0B1AF70A095F601E1
:100400000B2E02C0EE0FFF1F0A94E2F72A2F217075
:10041000622EA0FF02C04E2B5F2B20917C023091F8
:100420007D02E223F32377247394EF2B09F4712CDC
:10043000671441F0F801E80FF91F7B2E770C76283E
:1004400070820196772473947B0EF601072C02C00C
:10045000EE0FFF1F0A94E2F7A1FB662460F8A1FFEC
:1004600002C04E2B5F2BE223F32355245394EF2B32
:1004700009F4512C651439F0F801E80FF91F770CD5
:10048000762870820196E2E07E2E7B0EF601072C24
:1004900002C0EE0FFF1F0A94E2F7A2FB662460F889
:1004A000A2FF02C04E2B5F2BE223F323552453946B
:1004B000EF2B09F4512C651439F0F801E80FF91FFE
:1004C000770C762870820196F3E06F2E6B0EF601A2
:1004D000062C02C0EE0FFF1F0A94E2F7A3FB77245D
:1004E00070F8A3FF02C04E2B5F2BE223F32321E021
:1004F000EF2B09F420E0721641F0F801E80FF91F24
:10050000262D220F272920830196BC5F6F5F7F4F26
:10051000643071050CF461CF50937D0240937C02EE
:10052000582E8823C9F1380117C02F5F3F4F3F93E2
:100530002F931F928F93BF92AF920E94D4020F907D
:100540000F900F900F900F900F90FFEF6F1A7F0A90
:10055000862D801B851500F5F3012081822F817087
:10056000269530E02930310504F32F5F3F4F3F934C
:100570002F931F928F93FF92EF920E94D4020F90BD
:100580000F900F900F900F900F90FFEF6F1A7F0A50
:10059000862D801B851500F360E070E0B0E080E000
:1005A00090E040E050E015CFCF93DF93CDB7DEB7BA
:1005B000FE01369661917191AF0180918002909118
:1005C00081020E94E602DF91CF9108952F923F921F
:1005D0004F925F926F927F928F929F92AF92BF9253
:1005E000CF92DF92EF92FF920F931F93CF93DF93FF
:1005F000CDB7DEB72C970FB6F894DEBF0FBECDBFD8
:100600007C016B018A01FC0117821682838181FFC4
:10061000BDC1CE0101964C01F7019381F60193FD16
:10062000859193FF81916F01882309F4ABC18532D5
:1006300039F493FD859193FF81916F01853229F4FF
:10064000B70190E00E94F704E7CF512C312C20E055
:100650002032A0F48B3269F030F4803259F08332CA
:1006600069F420612CC08D3239F0803339F4216077
:1006700026C02260246023C0286021C027FD27C037
:1006800030ED380F3A3078F426FF06C0FAE05F9E6E
:10069000300D1124532E13C08AE0389E300D1124E2
:1006A000332E20620CC08E3221F426FD6BC12064F3
:1006B00006C08C3611F4206802C0883641F4F60179
:1006C00093FD859193FF81916F018111C1CF982F87
:1006D0009F7D9554933028F40C5F1F4FFFE3F983FF
:1006E0000DC0833631F0833771F0833509F05BC07C
:1006F00022C0F801808189830E5F1F4F44244394F8
:10070000512C540115C03801F2E06F0E711CF80134
:10071000A080B18026FF03C0652D70E002C06FEF9E
:100720007FEFC5012C870E94EC042C0183012C85EE
:100730002F77222E17C03801F2E06F0E711CF801DE
:10074000A080B18026FF03C0652D70E002C06FEF6E
:100750007FEFC5012C870E94E1042C012C852068C5
:10076000222E830123FC1BC0832D90E048165906DE
:10077000B0F4B70180E290E00E94F7043A94F4CF1D
:10078000F50127FC859127FE81915F01B70190E07B
:100790000E94F70431103A94F1E04F1A51084114C5
:1007A000510471F7E5C0843611F0893639F5F80146
:1007B00027FF07C060817181828193810C5F1F4F89
:1007C00008C060817181882777FD8095982F0E5F22
:1007D0001F4F2F76B22E97FF09C090958095709588
:1007E00061957F4F8F4F9F4F2068B22E2AE030E0F7
:1007F000A4010E942905A82EA81844C0853729F411
:100800002F7EB22E2AE030E025C0F22FF97FBF2ED6
:100810008F36C1F018F4883579F0B4C0803719F0FC
:10082000883721F0AFC02F2F2061B22EB4FE0DC04B
:100830008B2D8460B82E09C024FF0AC09F2F9660BC
:10084000B92E06C028E030E005C020E130E002C04B
:1008500020E132E0F801B7FE07C06081718182813A
:1008600093810C5F1F4F06C06081718180E090E032
:100870000E5F1F4FA4010E942905A82EA818FB2D6A
:10088000FF77BF2EB6FE0BC02B2D2E7FA51450F484
:10089000B4FE0AC0B2FC08C02B2D2E7E05C07A2CF7
:1008A0002B2D03C07A2C01C0752C24FF0DC0FE0136
:1008B000EA0DF11D8081803311F4297E09C022FFE9
:1008C00006C07394739404C0822F867809F07394E1
:1008D00023FD13C020FF06C05A2C731418F4530CC8
:1008E0005718732C731468F4B70180E290E02C87DA
:1008F0000E94F70473942C85F5CF731410F4371805
:1009000001C0312C24FF12C0B70180E390E02C8796
:100910000E94F7042C8522FF17C021FF03C088E541
:1009200090E002C088E790E0B7010CC0822F867883
:1009300059F021FD02C080E201C08BE227FD8DE26B
:10094000B70190E00E94F704A51438F4B70180E3E2
:1009500090E00E94F7045A94F7CFAA94F401EA0DAC
:10096000F11D8081B70190E00E94F704A110F5CF3E
:10097000332009F451CEB70180E290E00E94F704E1
:100980003A94F6CFF7018681978102C08FEF9FEFEF
:100990002C960FB6F894DEBF0FBECDBFDF91CF917E
:1009A0001F910F91FF90EF90DF90CF90BF90AF908D
:1009B0009F908F907F906F905F904F903F902F907F
:1009C0000895FC010590615070400110D8F78095A2
:1009D00090958E0F9F1F0895FC016150704001900B
:1009E0000110D8F7809590958E0F9F1F08950F9353
:1009F0001F93CF93DF93182F092FEB018B8181FD7C
:100A000003C08FEF9FEF20C082FF10C04E815F8137
:100A10002C813D81421753077CF4E881F9819F01C5
:100A20002F5F3F4F39832883108306C0E885F985FF
:100A3000812F1995892B29F72E813F812F5F3F4FF9
:100A40003F832E83812F902FDF91CF911F910F91A4
:100A50000895FA01AA27283051F1203181F1E89454
:100A60006F936E7F6E5F7F4F8F4F9F4FAF4FB1E0A1
:100A70003ED0B4E03CD0670F781F891F9A1FA11D9C
:100A8000680F791F8A1F911DA11D6A0F711D811D9D
:100A9000911DA11D20D009F468943F912AE0269F62
:100AA00011243019305D3193DEF6CF010895462FC1
:100AB0004770405D4193B3E00FD0C9F7F6CF462FA2
:100AC0004F70405D4A3318F0495D31FD405241930B
:100AD00002D0A9F7EACFB4E0A695979587957795C8
:100AE0006795BA95C9F700976105710508959B014F
:100AF000AC010A2E06945795479537952795BA95D8
:100B0000C9F7620F731F841F951FA01D0895F894E5
:020B1000FFCF15
:100B12003B023E024202450249024C024F0253028C
:100B220057025C025F02630266026B027102760286
:100B320000000002000000006D01000000002564BA
:100B42003025640A00256425640A00646F00646F1E
:100B52002300726500726523006D6900666100669C
:100B6200612300736F6C00736F6C23006C61006C07
:100B7200612300736900646F5F3200646F235F3228
:0C0B82000072655F32007265235F320074
:00000001FF
